{
  "_format": "hh3-artifact-1",
  "contractName": "TeamEconomy",
  "sourceName": "contracts/TeamEconomy.sol",
  "abi": [
    {
      "inputs": [
        {
          "internalType": "address",
          "name": "ido_",
          "type": "address"
        },
        {
          "internalType": "address",
          "name": "wedo_",
          "type": "address"
        },
        {
          "internalType": "address",
          "name": "teamManager_",
          "type": "address"
        },
        {
          "internalType": "uint256",
          "name": "initialS",
          "type": "uint256"
        },
        {
          "internalType": "uint256",
          "name": "stageUpdateDelaySeconds",
          "type": "uint256"
        },
        {
          "internalType": "address",
          "name": "admin",
          "type": "address"
        }
      ],
      "stateMutability": "nonpayable",
      "type": "constructor"
    },
    {
      "inputs": [],
      "name": "AccessControlBadConfirmation",
      "type": "error"
    },
    {
      "inputs": [
        {
          "internalType": "address",
          "name": "account",
          "type": "address"
        },
        {
          "internalType": "bytes32",
          "name": "neededRole",
          "type": "bytes32"
        }
      ],
      "name": "AccessControlUnauthorizedAccount",
      "type": "error"
    },
    {
      "inputs": [],
      "name": "ReentrancyGuardReentrantCall",
      "type": "error"
    },
    {
      "anonymous": false,
      "inputs": [
        {
          "indexed": true,
          "internalType": "uint256",
          "name": "teamId",
          "type": "uint256"
        },
        {
          "indexed": true,
          "internalType": "address",
          "name": "account",
          "type": "address"
        },
        {
          "indexed": false,
          "internalType": "uint256",
          "name": "amount",
          "type": "uint256"
        }
      ],
      "name": "Claimed",
      "type": "event"
    },
    {
      "anonymous": false,
      "inputs": [
        {
          "indexed": true,
          "internalType": "address",
          "name": "account",
          "type": "address"
        },
        {
          "indexed": false,
          "internalType": "uint256",
          "name": "amount",
          "type": "uint256"
        }
      ],
      "name": "PersonalCredited",
      "type": "event"
    },
    {
      "anonymous": false,
      "inputs": [
        {
          "indexed": true,
          "internalType": "bytes32",
          "name": "role",
          "type": "bytes32"
        },
        {
          "indexed": true,
          "internalType": "bytes32",
          "name": "previousAdminRole",
          "type": "bytes32"
        },
        {
          "indexed": true,
          "internalType": "bytes32",
          "name": "newAdminRole",
          "type": "bytes32"
        }
      ],
      "name": "RoleAdminChanged",
      "type": "event"
    },
    {
      "anonymous": false,
      "inputs": [
        {
          "indexed": true,
          "internalType": "bytes32",
          "name": "role",
          "type": "bytes32"
        },
        {
          "indexed": true,
          "internalType": "address",
          "name": "account",
          "type": "address"
        },
        {
          "indexed": true,
          "internalType": "address",
          "name": "sender",
          "type": "address"
        }
      ],
      "name": "RoleGranted",
      "type": "event"
    },
    {
      "anonymous": false,
      "inputs": [
        {
          "indexed": true,
          "internalType": "bytes32",
          "name": "role",
          "type": "bytes32"
        },
        {
          "indexed": true,
          "internalType": "address",
          "name": "account",
          "type": "address"
        },
        {
          "indexed": true,
          "internalType": "address",
          "name": "sender",
          "type": "address"
        }
      ],
      "name": "RoleRevoked",
      "type": "event"
    },
    {
      "anonymous": false,
      "inputs": [
        {
          "indexed": false,
          "internalType": "uint256",
          "name": "newS",
          "type": "uint256"
        },
        {
          "indexed": false,
          "internalType": "uint256",
          "name": "effectiveAt",
          "type": "uint256"
        }
      ],
      "name": "StageScalarUpdated",
      "type": "event"
    },
    {
      "anonymous": false,
      "inputs": [
        {
          "indexed": true,
          "internalType": "uint256",
          "name": "teamId",
          "type": "uint256"
        },
        {
          "indexed": false,
          "internalType": "uint256",
          "name": "amount",
          "type": "uint256"
        }
      ],
      "name": "TeamCredited",
      "type": "event"
    },
    {
      "anonymous": false,
      "inputs": [
        {
          "indexed": true,
          "internalType": "uint256",
          "name": "teamId",
          "type": "uint256"
        },
        {
          "indexed": true,
          "internalType": "address",
          "name": "caller",
          "type": "address"
        },
        {
          "indexed": false,
          "internalType": "uint256",
          "name": "amountWEDO",
          "type": "uint256"
        },
        {
          "indexed": false,
          "internalType": "uint256",
          "name": "L",
          "type": "uint256"
        },
        {
          "indexed": false,
          "internalType": "uint256",
          "name": "mintIdo",
          "type": "uint256"
        },
        {
          "indexed": false,
          "internalType": "uint256",
          "name": "R",
          "type": "uint256"
        }
      ],
      "name": "TeamWithdraw",
      "type": "event"
    },
    {
      "inputs": [],
      "name": "DEFAULT_ADMIN_ROLE",
      "outputs": [
        {
          "internalType": "bytes32",
          "name": "",
          "type": "bytes32"
        }
      ],
      "stateMutability": "view",
      "type": "function"
    },
    {
      "inputs": [],
      "name": "DISTRIBUTOR_ROLE",
      "outputs": [
        {
          "internalType": "bytes32",
          "name": "",
          "type": "bytes32"
        }
      ],
      "stateMutability": "view",
      "type": "function"
    },
    {
      "inputs": [],
      "name": "PARAM_ROLE",
      "outputs": [
        {
          "internalType": "bytes32",
          "name": "",
          "type": "bytes32"
        }
      ],
      "stateMutability": "view",
      "type": "function"
    },
    {
      "inputs": [
        {
          "internalType": "uint256",
          "name": "",
          "type": "uint256"
        }
      ],
      "name": "accIdoPerSurvivor",
      "outputs": [
        {
          "internalType": "uint256",
          "name": "",
          "type": "uint256"
        }
      ],
      "stateMutability": "view",
      "type": "function"
    },
    {
      "inputs": [
        {
          "internalType": "uint256",
          "name": "teamId",
          "type": "uint256"
        }
      ],
      "name": "claim",
      "outputs": [],
      "stateMutability": "nonpayable",
      "type": "function"
    },
    {
      "inputs": [
        {
          "internalType": "uint256[]",
          "name": "teamIds",
          "type": "uint256[]"
        }
      ],
      "name": "claimMany",
      "outputs": [],
      "stateMutability": "nonpayable",
      "type": "function"
    },
    {
      "inputs": [
        {
          "internalType": "address",
          "name": "account",
          "type": "address"
        },
        {
          "internalType": "uint256",
          "name": "amount",
          "type": "uint256"
        }
      ],
      "name": "creditPersonalIDO",
      "outputs": [],
      "stateMutability": "nonpayable",
      "type": "function"
    },
    {
      "inputs": [
        {
          "internalType": "uint256",
          "name": "teamId",
          "type": "uint256"
        },
        {
          "internalType": "uint256",
          "name": "amount",
          "type": "uint256"
        }
      ],
      "name": "creditTeamWEDO",
      "outputs": [],
      "stateMutability": "nonpayable",
      "type": "function"
    },
    {
      "inputs": [
        {
          "internalType": "uint256",
          "name": "teamId",
          "type": "uint256"
        }
      ],
      "name": "getR",
      "outputs": [
        {
          "internalType": "uint256",
          "name": "R",
          "type": "uint256"
        }
      ],
      "stateMutability": "view",
      "type": "function"
    },
    {
      "inputs": [
        {
          "internalType": "bytes32",
          "name": "role",
          "type": "bytes32"
        }
      ],
      "name": "getRoleAdmin",
      "outputs": [
        {
          "internalType": "bytes32",
          "name": "",
          "type": "bytes32"
        }
      ],
      "stateMutability": "view",
      "type": "function"
    },
    {
      "inputs": [],
      "name": "getStageScalar",
      "outputs": [
        {
          "internalType": "uint256",
          "name": "",
          "type": "uint256"
        }
      ],
      "stateMutability": "view",
      "type": "function"
    },
    {
      "inputs": [
        {
          "internalType": "uint256",
          "name": "teamId",
          "type": "uint256"
        }
      ],
      "name": "getTeamL",
      "outputs": [
        {
          "internalType": "uint256",
          "name": "L",
          "type": "uint256"
        }
      ],
      "stateMutability": "view",
      "type": "function"
    },
    {
      "inputs": [
        {
          "internalType": "bytes32",
          "name": "role",
          "type": "bytes32"
        },
        {
          "internalType": "address",
          "name": "account",
          "type": "address"
        }
      ],
      "name": "grantRole",
      "outputs": [],
      "stateMutability": "nonpayable",
      "type": "function"
    },
    {
      "inputs": [
        {
          "internalType": "bytes32",
          "name": "role",
          "type": "bytes32"
        },
        {
          "internalType": "address",
          "name": "account",
          "type": "address"
        }
      ],
      "name": "hasRole",
      "outputs": [
        {
          "internalType": "bool",
          "name": "",
          "type": "bool"
        }
      ],
      "stateMutability": "view",
      "type": "function"
    },
    {
      "inputs": [],
      "name": "ido",
      "outputs": [
        {
          "internalType": "contract IIdoToken",
          "name": "",
          "type": "address"
        }
      ],
      "stateMutability": "view",
      "type": "function"
    },
    {
      "inputs": [
        {
          "internalType": "uint256",
          "name": "teamId",
          "type": "uint256"
        },
        {
          "internalType": "address",
          "name": "account",
          "type": "address"
        }
      ],
      "name": "onJoin",
      "outputs": [],
      "stateMutability": "nonpayable",
      "type": "function"
    },
    {
      "inputs": [
        {
          "internalType": "uint256",
          "name": "teamId",
          "type": "uint256"
        },
        {
          "internalType": "address",
          "name": "account",
          "type": "address"
        }
      ],
      "name": "onLeave",
      "outputs": [],
      "stateMutability": "nonpayable",
      "type": "function"
    },
    {
      "inputs": [
        {
          "internalType": "uint256",
          "name": "teamId",
          "type": "uint256"
        },
        {
          "internalType": "address",
          "name": "account",
          "type": "address"
        }
      ],
      "name": "pendingIdo",
      "outputs": [
        {
          "internalType": "uint256",
          "name": "",
          "type": "uint256"
        }
      ],
      "stateMutability": "view",
      "type": "function"
    },
    {
      "inputs": [],
      "name": "pendingStageScalar",
      "outputs": [
        {
          "internalType": "uint256",
          "name": "",
          "type": "uint256"
        }
      ],
      "stateMutability": "view",
      "type": "function"
    },
    {
      "inputs": [
        {
          "internalType": "bytes32",
          "name": "role",
          "type": "bytes32"
        },
        {
          "internalType": "address",
          "name": "callerConfirmation",
          "type": "address"
        }
      ],
      "name": "renounceRole",
      "outputs": [],
      "stateMutability": "nonpayable",
      "type": "function"
    },
    {
      "inputs": [
        {
          "internalType": "uint256",
          "name": "",
          "type": "uint256"
        }
      ],
      "name": "residual",
      "outputs": [
        {
          "internalType": "uint256",
          "name": "",
          "type": "uint256"
        }
      ],
      "stateMutability": "view",
      "type": "function"
    },
    {
      "inputs": [
        {
          "internalType": "bytes32",
          "name": "role",
          "type": "bytes32"
        },
        {
          "internalType": "address",
          "name": "account",
          "type": "address"
        }
      ],
      "name": "revokeRole",
      "outputs": [],
      "stateMutability": "nonpayable",
      "type": "function"
    },
    {
      "inputs": [
        {
          "internalType": "uint256",
          "name": "newS",
          "type": "uint256"
        }
      ],
      "name": "setStageScalar",
      "outputs": [],
      "stateMutability": "nonpayable",
      "type": "function"
    },
    {
      "inputs": [
        {
          "internalType": "address",
          "name": "teamManager_",
          "type": "address"
        }
      ],
      "name": "setTeamManager",
      "outputs": [],
      "stateMutability": "nonpayable",
      "type": "function"
    },
    {
      "inputs": [],
      "name": "stageScalar",
      "outputs": [
        {
          "internalType": "uint256",
          "name": "",
          "type": "uint256"
        }
      ],
      "stateMutability": "view",
      "type": "function"
    },
    {
      "inputs": [],
      "name": "stageScalarEffectiveAt",
      "outputs": [
        {
          "internalType": "uint256",
          "name": "",
          "type": "uint256"
        }
      ],
      "stateMutability": "view",
      "type": "function"
    },
    {
      "inputs": [],
      "name": "stageUpdateDelay",
      "outputs": [
        {
          "internalType": "uint256",
          "name": "",
          "type": "uint256"
        }
      ],
      "stateMutability": "view",
      "type": "function"
    },
    {
      "inputs": [
        {
          "internalType": "bytes4",
          "name": "interfaceId",
          "type": "bytes4"
        }
      ],
      "name": "supportsInterface",
      "outputs": [
        {
          "internalType": "bool",
          "name": "",
          "type": "bool"
        }
      ],
      "stateMutability": "view",
      "type": "function"
    },
    {
      "inputs": [],
      "name": "teamManager",
      "outputs": [
        {
          "internalType": "contract ITeamManager",
          "name": "",
          "type": "address"
        }
      ],
      "stateMutability": "view",
      "type": "function"
    },
    {
      "inputs": [
        {
          "internalType": "uint256",
          "name": "",
          "type": "uint256"
        }
      ],
      "name": "teamWedoBalance",
      "outputs": [
        {
          "internalType": "uint256",
          "name": "",
          "type": "uint256"
        }
      ],
      "stateMutability": "view",
      "type": "function"
    },
    {
      "inputs": [
        {
          "internalType": "uint256",
          "name": "",
          "type": "uint256"
        },
        {
          "internalType": "address",
          "name": "",
          "type": "address"
        }
      ],
      "name": "userAccrued",
      "outputs": [
        {
          "internalType": "uint256",
          "name": "",
          "type": "uint256"
        }
      ],
      "stateMutability": "view",
      "type": "function"
    },
    {
      "inputs": [
        {
          "internalType": "uint256",
          "name": "",
          "type": "uint256"
        },
        {
          "internalType": "address",
          "name": "",
          "type": "address"
        }
      ],
      "name": "userRewardDebt",
      "outputs": [
        {
          "internalType": "uint256",
          "name": "",
          "type": "uint256"
        }
      ],
      "stateMutability": "view",
      "type": "function"
    },
    {
      "inputs": [
        {
          "internalType": "uint256",
          "name": "",
          "type": "uint256"
        },
        {
          "internalType": "address",
          "name": "",
          "type": "address"
        }
      ],
      "name": "userShares",
      "outputs": [
        {
          "internalType": "uint8",
          "name": "",
          "type": "uint8"
        }
      ],
      "stateMutability": "view",
      "type": "function"
    },
    {
      "inputs": [],
      "name": "wedo",
      "outputs": [
        {
          "internalType": "contract IWedoToken",
          "name": "",
          "type": "address"
        }
      ],
      "stateMutability": "view",
      "type": "function"
    },
    {
      "inputs": [
        {
          "internalType": "uint256",
          "name": "teamId",
          "type": "uint256"
        },
        {
          "internalType": "uint256",
          "name": "amountWEDO",
          "type": "uint256"
        }
      ],
      "name": "withdraw",
      "outputs": [],
      "stateMutability": "nonpayable",
      "type": "function"
    },
    {
      "inputs": [
        {
          "internalType": "uint256",
          "name": "teamId",
          "type": "uint256"
        }
      ],
      "name": "withdrawAll",
      "outputs": [],
      "stateMutability": "nonpayable",
      "type": "function"
    }
  ],
  "bytecode": "0x60e060405234801561000f575f5ffd5b50604051611a9d380380611a9d83398101604081905261002e91610197565b600180556001600160a01b0386811660805285811660a052600280546001600160a01b031916918616919091179055600983905560c08290526100715f826100d3565b5061009c7ffbd454f36a7e1a388bd6fc3ab10d434aa4578f811acbbcf33afb1c697486313c826100d3565b506100c77f8a4778feaa2fc65ebc9ddd026461f05b6522e206b955ca87f94c0eebfa8bcb2c826100d3565b505050505050506101fa565b5f828152602081815260408083206001600160a01b038516845290915281205460ff16610173575f838152602081815260408083206001600160a01b03861684529091529020805460ff1916600117905561012b3390565b6001600160a01b0316826001600160a01b0316847f2f8788117e7eff1d82e926ec794901d17c78024a50270940304540a733656f0d60405160405180910390a4506001610176565b505f5b92915050565b80516001600160a01b0381168114610192575f5ffd5b919050565b5f5f5f5f5f5f60c087890312156101ac575f5ffd5b6101b58761017c565b95506101c36020880161017c565b94506101d16040880161017c565b60608801516080890151919550935091506101ee60a0880161017c565b90509295509295509295565b60805160a05160c05161184f61024e5f395f818161039d01528181610fcf015261104901525f818161042201528181610a4f0152610cd501525f818161054d015281816107450152611250015261184f5ff3fe608060405234801561000f575f5ffd5b5060043610610213575f3560e01c8063ad9548781161011f578063dc5658ad116100a9578063ea8f58bf11610079578063ea8f58bf14610529578063eeb522aa14610548578063f0bd87cc1461056f578063f31f07d214610596578063f9f00f6e146105a9575f5ffd5b8063dc5658ad146104db578063dd58fb5a146104ee578063e6cefab41461050d578063e94888c114610516575f5ffd5b8063cf3f1826116100ef578063cf3f182614610465578063d510898014610478578063d547741f1461048b578063d65024a51461049e578063db766306146104b1575f5ffd5b8063ad954878146103bf578063add56f38146103fe578063b903503a1461041d578063cc96afcf1461045c575f5ffd5b80635c45ee8a116101a057806391d148541161017057806391d1485414610358578063925489a81461036b578063958e2d311461037e578063a217fddf14610391578063ace53dd314610398575f5ffd5b80635c45ee8a14610321578063854036431461032a5780638844473014610332578063906bbfb214610345575f5ffd5b8063379607f5116101e6578063379607f5146102975780633b289fa5146102aa578063437b8c3d146102d4578063441a3e70146102fb5780634c2055b61461030e575f5ffd5b806301ffc9a714610217578063248a9ca31461023f5780632f2ff15d1461026f57806336568abe14610284575b5f5ffd5b61022a61022536600461149e565b6105bc565b60405190151581526020015b60405180910390f35b61026161024d3660046114cc565b5f9081526020819052604090206001015490565b604051908152602001610236565b61028261027d3660046114fe565b6105f2565b005b6102826102923660046114fe565b61061c565b6102826102a53660046114cc565b610654565b6102616102b83660046114fe565b600660209081525f928352604080842090915290825290205481565b6102617f8a4778feaa2fc65ebc9ddd026461f05b6522e206b955ca87f94c0eebfa8bcb2c81565b610282610309366004611528565b6107e1565b61028261031c3660046114fe565b610b94565b610261600a5481565b610261610c48565b610282610340366004611528565b610c70565b6102616103533660046114cc565b610d93565b61022a6103663660046114fe565b610e87565b610282610379366004611548565b610eaf565b61028261038c3660046114cc565b610ee2565b6102615f81565b6102617f000000000000000000000000000000000000000000000000000000000000000081565b6103ec6103cd3660046114fe565b600860209081525f928352604080842090915290825290205460ff1681565b60405160ff9091168152602001610236565b61026161040c3660046114cc565b60046020525f908152604090205481565b6104447f000000000000000000000000000000000000000000000000000000000000000081565b6040516001600160a01b039091168152602001610236565b61026160095481565b6102826104733660046114fe565b610efa565b6102826104863660046114cc565b610fa3565b6102826104993660046114fe565b6110aa565b6102616104ac3660046114cc565b6110ce565b6102616104bf3660046114fe565b600760209081525f928352604080842090915290825290205481565b6102616104e93660046114fe565b611145565b6102616104fc3660046114cc565b60056020525f908152604090205481565b610261600b5481565b6102826105243660046115b9565b6111e1565b6102616105373660046114cc565b60036020525f908152604090205481565b6104447f000000000000000000000000000000000000000000000000000000000000000081565b6102617ffbd454f36a7e1a388bd6fc3ab10d434aa4578f811acbbcf33afb1c697486313c81565b600254610444906001600160a01b031681565b6102826105b73660046115e1565b6112e2565b5f6001600160e01b03198216637965db0b60e01b14806105ec57506301ffc9a760e01b6001600160e01b03198316145b92915050565b5f8281526020819052604090206001015461060c8161130f565b6106168383611319565b50505050565b6001600160a01b03811633146106455760405163334bd91960e11b815260040160405180910390fd5b61064f82826113a8565b505050565b61065c611411565b5f6106678233611145565b9050805f036106be575f82815260046020908152604080832054600883528184203385529092529091205461069f919060ff1661160e565b5f838152600660209081526040808320338452909152902055506107d5565b5f82815260076020908152604080832033808552908352818420849055858452600483528184205460088452828520918552925290912054610703919060ff1661160e565b5f8381526006602090815260408083203380855292529182902092909255516340c10f1960e01b81526004810191909152602481018290526001600160a01b037f000000000000000000000000000000000000000000000000000000000000000016906340c10f19906044015f604051808303815f87803b158015610786575f5ffd5b505af1158015610798573d5f5f3e3d5ffd5b50506040518381523392508491507f4ec90e965519d92681267467f775ada5bd214aa92c0dc93d90a5e880ce9ed0269060200160405180910390a3505b6107de60018055565b50565b6107e9611411565b5f81116108115760405162461bcd60e51b815260040161080890611625565b60405180910390fd5b5f8281526003602052604090205481111561085d5760405162461bcd60e51b815260206004820152600c60248201526b1a5b9cdd59999a58da595b9d60a21b6044820152606401610808565b60025460405163188d4b8360e31b81523360048201525f916001600160a01b03169063c46a5c1890602401602060405180830381865afa1580156108a3573d5f5f3e3d5ffd5b505050506040513d601f19601f820116820180604052508101906108c7919061164a565b90508281146109055760405162461bcd60e51b815260206004820152600a6024820152693737ba1036b2b6b132b960b11b6044820152606401610808565b60025460405163176312b960e31b8152600481018590523360248201525f916001600160a01b03169063bb1895c890604401608060405180830381865afa158015610952573d5f5f3e3d5ffd5b505050506040513d601f19601f820116820180604052508101906109769190611678565b50505090508060ff166001146109b95760405162461bcd60e51b8152602060048201526008602482015267696e61637469766560c01b6044820152606401610808565b6109c161143b565b5f6109cb856110ce565b90505f8111610a025760405162461bcd60e51b81526020600482015260036024820152620523d360ec1b6044820152606401610808565b5f610a0c86610d93565b90508460035f8881526020019081526020015f205f828254610a2e91906116d0565b9091555050604051632770a7eb60e21b8152306004820152602481018690527f00000000000000000000000000000000000000000000000000000000000000006001600160a01b031690639dc29fac906044015f604051808303815f87803b158015610a98575f5ffd5b505af1158015610aaa573d5f5f3e3d5ffd5b505050505f670de0b6b3a76400008287610ac4919061160e565b610ace91906116e3565b90505f610adb84836116e3565b9050610ae7848261160e565b610af190836116d0565b5f8981526005602052604081208054909190610b0e908490611702565b90915550505f8881526004602052604081208054839290610b30908490611702565b9091555050604080518881526020810185905290810183905260608101859052339089907fdfe0b6555726dcabe83578692797a3059cfeace9f764ff887cfd195918a1a0e79060800160405180910390a3505050505050610b9060018055565b5050565b6002546001600160a01b03163314610bd85760405162461bcd60e51b81526020600482015260076024820152666f6e6c7920544d60c81b6044820152606401610808565b5f610be38383611145565b5f8481526007602090815260408083206001600160a01b0390961680845295825280832093909355858252600881528282208583528152828220805460ff19166001179055948152600485528181205460068652828220948252939094529092205550565b5f600a545f14158015610c5d5750600b544210155b15610c695750600a5490565b5060095490565b7ffbd454f36a7e1a388bd6fc3ab10d434aa4578f811acbbcf33afb1c697486313c610c9a8161130f565b5f8211610cb95760405162461bcd60e51b815260040161080890611625565b6040516340c10f1960e01b8152306004820152602481018390527f00000000000000000000000000000000000000000000000000000000000000006001600160a01b0316906340c10f19906044015f604051808303815f87803b158015610d1e575f5ffd5b505af1158015610d30573d5f5f3e3d5ffd5b5050505f8481526003602052604081208054859350909190610d53908490611702565b909155505060405182815283907f5e453cea3dab4fcc7b55e230e3edb2e64fa95a93f6b51c81a3f6e4c131d84fd7906020015b60405180910390a2505050565b600254604051631f695bbd60e11b8152600481018390525f9182918291829182916001600160a01b031690633ed2b77a906024015f60405180830381865afa158015610de1573d5f5f3e3d5ffd5b505050506040513d5f823e601f3d908101601f19168201604052610e089190810190611729565b945050935093509350835f03610e2357505f95945050505050565b5f610e2c610c48565b90505f610e3985856116d0565b90505f86610e47858461160e565b610e5191906116e3565b610e5b9087611702565b9050670de0b6b3a7640000610e70828561160e565b610e7a91906116e3565b9998505050505050505050565b5f918252602082815260408084206001600160a01b0393909316845291905290205460ff1690565b5f5b8181101561064f57610eda838383818110610ece57610ece611805565b90506020020135610654565b600101610eb1565b5f81815260036020526040902054610b9082826107e1565b6002546001600160a01b03163314610f3e5760405162461bcd60e51b81526020600482015260076024820152666f6e6c7920544d60c81b6044820152606401610808565b5f610f498383611145565b5f8481526007602090815260408083206001600160a01b0390961680845295825280832093909355858252600881528282208583528152828220805460ff1916905594815260068552818120938152929093525090812055565b7f8a4778feaa2fc65ebc9ddd026461f05b6522e206b955ca87f94c0eebfa8bcb2c610fcd8161130f565b7f00000000000000000000000000000000000000000000000000000000000000005f0361103f5760098290555f600a819055600b55604080518381524260208201527f240909aa258656a46bc1973e08afb8539584687a3d6ec98581c0a6928ba6981991015b60405180910390a15050565b600a82905561106e7f000000000000000000000000000000000000000000000000000000000000000042611702565b600b8190556040805184815260208101929092527f240909aa258656a46bc1973e08afb8539584687a3d6ec98581c0a6928ba698199101611033565b5f828152602081905260409020600101546110c48161130f565b61061683836113a8565b600254604051631f695bbd60e11b8152600481018390525f916001600160a01b031690633ed2b77a906024015f60405180830381865afa158015611114573d5f5f3e3d5ffd5b505050506040513d5f823e601f3d908101601f1916820160405261113b9190810190611729565b9695505050505050565b5f8281526008602090815260408083206001600160a01b0385168085529083528184205486855260048452828520546006855283862083875285528386205488875260078652848720938752929094529184205460ff9092169291846111ab848661160e565b9050828110156111c1575093506105ec92505050565b6111cb83826116d0565b6111d59083611702565b98975050505050505050565b7ffbd454f36a7e1a388bd6fc3ab10d434aa4578f811acbbcf33afb1c697486313c61120b8161130f565b5f821161122a5760405162461bcd60e51b815260040161080890611625565b6040516340c10f1960e01b81526001600160a01b038481166004830152602482018490527f000000000000000000000000000000000000000000000000000000000000000016906340c10f19906044015f604051808303815f87803b158015611291575f5ffd5b505af11580156112a3573d5f5f3e3d5ffd5b50505050826001600160a01b03167f4f624b4bf71ef05f45dfe0b8e5a216938edb0990252cbd249226d49d23aed5de83604051610d8691815260200190565b5f6112ec8161130f565b50600280546001600160a01b0319166001600160a01b0392909216919091179055565b6107de8133611465565b5f6113248383610e87565b6113a1575f838152602081815260408083206001600160a01b03861684529091529020805460ff191660011790556113593390565b6001600160a01b0316826001600160a01b0316847f2f8788117e7eff1d82e926ec794901d17c78024a50270940304540a733656f0d60405160405180910390a45060016105ec565b505f6105ec565b5f6113b38383610e87565b156113a1575f838152602081815260408083206001600160a01b0386168085529252808320805460ff1916905551339286917ff6391f5c32d9c69d2a47ea670b442974b53935d1edc7fd64eb21e047a839171b9190a45060016105ec565b60026001540361143457604051633ee5aeb560e01b815260040160405180910390fd5b6002600155565b600a541580159061144e5750600b544210155b1561146357600a80546009555f90819055600b555b565b61146f8282610e87565b610b905760405163e2517d3f60e01b81526001600160a01b038216600482015260248101839052604401610808565b5f602082840312156114ae575f5ffd5b81356001600160e01b0319811681146114c5575f5ffd5b9392505050565b5f602082840312156114dc575f5ffd5b5035919050565b80356001600160a01b03811681146114f9575f5ffd5b919050565b5f5f6040838503121561150f575f5ffd5b8235915061151f602084016114e3565b90509250929050565b5f5f60408385031215611539575f5ffd5b50508035926020909101359150565b5f5f60208385031215611559575f5ffd5b823567ffffffffffffffff81111561156f575f5ffd5b8301601f8101851361157f575f5ffd5b803567ffffffffffffffff811115611595575f5ffd5b8560208260051b84010111156115a9575f5ffd5b6020919091019590945092505050565b5f5f604083850312156115ca575f5ffd5b6115d3836114e3565b946020939093013593505050565b5f602082840312156115f1575f5ffd5b6114c5826114e3565b634e487b7160e01b5f52601160045260245ffd5b80820281158282048414176105ec576105ec6115fa565b6020808252600b908201526a1e995c9bc8185b5bdd5b9d60aa1b604082015260600190565b5f6020828403121561165a575f5ffd5b5051919050565b805167ffffffffffffffff811681146114f9575f5ffd5b5f5f5f5f6080858703121561168b575f5ffd5b845160ff8116811461169b575f5ffd5b93506116a960208601611661565b92506116b760408601611661565b91506116c560608601611661565b905092959194509250565b818103818111156105ec576105ec6115fa565b5f826116fd57634e487b7160e01b5f52601260045260245ffd5b500490565b808201808211156105ec576105ec6115fa565b634e487b7160e01b5f52604160045260245ffd5b5f5f5f5f5f60a0868803121561173d575f5ffd5b8551602087015160408801516060890151929750909550935067ffffffffffffffff81111561176a575f5ffd5b8601601f8101881361177a575f5ffd5b805167ffffffffffffffff81111561179457611794611715565b604051601f8201601f19908116603f0116810167ffffffffffffffff811182821017156117c3576117c3611715565b6040528181528282016020018a10156117da575f5ffd5b8160208401602083015e5f918101602001919091526080979097015195989497509295949392505050565b634e487b7160e01b5f52603260045260245ffdfea26469706673582212208692a60de5d4b0355920fd54f554573f35674211f4758c724a1f807fed9d587264736f6c634300081c0033",
  "linkReferences": {},
  "deployedLinkReferences": {},
  "immutableReferences": {
    "615": [
      {
        "length": 32,
        "start": 1357
      },
      {
        "length": 32,
        "start": 1861
      },
      {
        "length": 32,
        "start": 4688
      }
    ],
    "618": [
      {
        "length": 32,
        "start": 1058
      },
      {
        "length": 32,
        "start": 2639
      },
      {
        "length": 32,
        "start": 3285
      }
    ],
    "659": [
      {
        "length": 32,
        "start": 925
      },
      {
        "length": 32,
        "start": 4047
      },
      {
        "length": 32,
        "start": 4169
      }
    ]
  },
  "inputSourceName": "project/contracts/TeamEconomy.sol",
  "buildInfoId": "solc-0_8_28-4a54556a59bd0c262ebe1524f9aa113f2a26ca62"
}