{
  "_format": "hh3-artifact-1",
  "contractName": "TeamManager",
  "sourceName": "contracts/TeamManager.sol",
  "abi": [
    {
      "inputs": [
        {
          "internalType": "address",
          "name": "admin",
          "type": "address"
        }
      ],
      "stateMutability": "nonpayable",
      "type": "constructor"
    },
    {
      "inputs": [],
      "name": "AccessControlBadConfirmation",
      "type": "error"
    },
    {
      "inputs": [
        {
          "internalType": "address",
          "name": "account",
          "type": "address"
        },
        {
          "internalType": "bytes32",
          "name": "neededRole",
          "type": "bytes32"
        }
      ],
      "name": "AccessControlUnauthorizedAccount",
      "type": "error"
    },
    {
      "anonymous": false,
      "inputs": [
        {
          "indexed": true,
          "internalType": "address",
          "name": "economy",
          "type": "address"
        }
      ],
      "name": "EconomySet",
      "type": "event"
    },
    {
      "anonymous": false,
      "inputs": [
        {
          "indexed": true,
          "internalType": "uint256",
          "name": "teamId",
          "type": "uint256"
        },
        {
          "indexed": true,
          "internalType": "address",
          "name": "account",
          "type": "address"
        }
      ],
      "name": "MemberEliminated",
      "type": "event"
    },
    {
      "anonymous": false,
      "inputs": [
        {
          "indexed": true,
          "internalType": "uint256",
          "name": "teamId",
          "type": "uint256"
        },
        {
          "indexed": true,
          "internalType": "address",
          "name": "account",
          "type": "address"
        }
      ],
      "name": "MemberJoined",
      "type": "event"
    },
    {
      "anonymous": false,
      "inputs": [
        {
          "indexed": true,
          "internalType": "uint256",
          "name": "teamId",
          "type": "uint256"
        },
        {
          "indexed": true,
          "internalType": "address",
          "name": "account",
          "type": "address"
        }
      ],
      "name": "MemberLeft",
      "type": "event"
    },
    {
      "anonymous": false,
      "inputs": [
        {
          "indexed": true,
          "internalType": "bytes32",
          "name": "role",
          "type": "bytes32"
        },
        {
          "indexed": true,
          "internalType": "bytes32",
          "name": "previousAdminRole",
          "type": "bytes32"
        },
        {
          "indexed": true,
          "internalType": "bytes32",
          "name": "newAdminRole",
          "type": "bytes32"
        }
      ],
      "name": "RoleAdminChanged",
      "type": "event"
    },
    {
      "anonymous": false,
      "inputs": [
        {
          "indexed": true,
          "internalType": "bytes32",
          "name": "role",
          "type": "bytes32"
        },
        {
          "indexed": true,
          "internalType": "address",
          "name": "account",
          "type": "address"
        },
        {
          "indexed": true,
          "internalType": "address",
          "name": "sender",
          "type": "address"
        }
      ],
      "name": "RoleGranted",
      "type": "event"
    },
    {
      "anonymous": false,
      "inputs": [
        {
          "indexed": true,
          "internalType": "bytes32",
          "name": "role",
          "type": "bytes32"
        },
        {
          "indexed": true,
          "internalType": "address",
          "name": "account",
          "type": "address"
        },
        {
          "indexed": true,
          "internalType": "address",
          "name": "sender",
          "type": "address"
        }
      ],
      "name": "RoleRevoked",
      "type": "event"
    },
    {
      "anonymous": false,
      "inputs": [
        {
          "indexed": true,
          "internalType": "uint256",
          "name": "teamId",
          "type": "uint256"
        },
        {
          "indexed": false,
          "internalType": "uint256",
          "name": "n0",
          "type": "uint256"
        },
        {
          "indexed": false,
          "internalType": "uint256",
          "name": "lMin",
          "type": "uint256"
        },
        {
          "indexed": false,
          "internalType": "uint256",
          "name": "lMax",
          "type": "uint256"
        },
        {
          "indexed": false,
          "internalType": "string",
          "name": "flagURI",
          "type": "string"
        }
      ],
      "name": "TeamCreated",
      "type": "event"
    },
    {
      "inputs": [],
      "name": "ADMIN_ROLE",
      "outputs": [
        {
          "internalType": "bytes32",
          "name": "",
          "type": "bytes32"
        }
      ],
      "stateMutability": "view",
      "type": "function"
    },
    {
      "inputs": [],
      "name": "DEFAULT_ADMIN_ROLE",
      "outputs": [
        {
          "internalType": "bytes32",
          "name": "",
          "type": "bytes32"
        }
      ],
      "stateMutability": "view",
      "type": "function"
    },
    {
      "inputs": [
        {
          "internalType": "address",
          "name": "",
          "type": "address"
        }
      ],
      "name": "accountTeam",
      "outputs": [
        {
          "internalType": "uint256",
          "name": "",
          "type": "uint256"
        }
      ],
      "stateMutability": "view",
      "type": "function"
    },
    {
      "inputs": [
        {
          "internalType": "uint256",
          "name": "teamId",
          "type": "uint256"
        },
        {
          "internalType": "uint256",
          "name": "n0",
          "type": "uint256"
        },
        {
          "internalType": "uint256",
          "name": "lMin",
          "type": "uint256"
        },
        {
          "internalType": "uint256",
          "name": "lMax",
          "type": "uint256"
        },
        {
          "internalType": "string",
          "name": "flagURI",
          "type": "string"
        }
      ],
      "name": "createTeam",
      "outputs": [],
      "stateMutability": "nonpayable",
      "type": "function"
    },
    {
      "inputs": [],
      "name": "economy",
      "outputs": [
        {
          "internalType": "contract ITeamEconomyHooks",
          "name": "",
          "type": "address"
        }
      ],
      "stateMutability": "view",
      "type": "function"
    },
    {
      "inputs": [
        {
          "internalType": "uint256",
          "name": "teamId",
          "type": "uint256"
        },
        {
          "internalType": "address",
          "name": "account",
          "type": "address"
        },
        {
          "internalType": "uint64",
          "name": "cooldownSeconds",
          "type": "uint64"
        }
      ],
      "name": "eliminate",
      "outputs": [],
      "stateMutability": "nonpayable",
      "type": "function"
    },
    {
      "inputs": [
        {
          "internalType": "bytes32",
          "name": "role",
          "type": "bytes32"
        }
      ],
      "name": "getRoleAdmin",
      "outputs": [
        {
          "internalType": "bytes32",
          "name": "",
          "type": "bytes32"
        }
      ],
      "stateMutability": "view",
      "type": "function"
    },
    {
      "inputs": [
        {
          "internalType": "bytes32",
          "name": "role",
          "type": "bytes32"
        },
        {
          "internalType": "address",
          "name": "account",
          "type": "address"
        }
      ],
      "name": "grantRole",
      "outputs": [],
      "stateMutability": "nonpayable",
      "type": "function"
    },
    {
      "inputs": [
        {
          "internalType": "bytes32",
          "name": "role",
          "type": "bytes32"
        },
        {
          "internalType": "address",
          "name": "account",
          "type": "address"
        }
      ],
      "name": "hasRole",
      "outputs": [
        {
          "internalType": "bool",
          "name": "",
          "type": "bool"
        }
      ],
      "stateMutability": "view",
      "type": "function"
    },
    {
      "inputs": [
        {
          "internalType": "uint256",
          "name": "teamId",
          "type": "uint256"
        }
      ],
      "name": "join",
      "outputs": [],
      "stateMutability": "nonpayable",
      "type": "function"
    },
    {
      "inputs": [
        {
          "internalType": "uint256",
          "name": "cooldownSeconds",
          "type": "uint256"
        }
      ],
      "name": "leave",
      "outputs": [],
      "stateMutability": "nonpayable",
      "type": "function"
    },
    {
      "inputs": [
        {
          "internalType": "uint256",
          "name": "",
          "type": "uint256"
        },
        {
          "internalType": "address",
          "name": "",
          "type": "address"
        }
      ],
      "name": "members",
      "outputs": [
        {
          "internalType": "uint8",
          "name": "status",
          "type": "uint8"
        },
        {
          "internalType": "uint64",
          "name": "joinedAt",
          "type": "uint64"
        },
        {
          "internalType": "uint64",
          "name": "eliminatedAt",
          "type": "uint64"
        },
        {
          "internalType": "uint64",
          "name": "cooldownEndsAt",
          "type": "uint64"
        }
      ],
      "stateMutability": "view",
      "type": "function"
    },
    {
      "inputs": [
        {
          "internalType": "bytes32",
          "name": "role",
          "type": "bytes32"
        },
        {
          "internalType": "address",
          "name": "callerConfirmation",
          "type": "address"
        }
      ],
      "name": "renounceRole",
      "outputs": [],
      "stateMutability": "nonpayable",
      "type": "function"
    },
    {
      "inputs": [
        {
          "internalType": "bytes32",
          "name": "role",
          "type": "bytes32"
        },
        {
          "internalType": "address",
          "name": "account",
          "type": "address"
        }
      ],
      "name": "revokeRole",
      "outputs": [],
      "stateMutability": "nonpayable",
      "type": "function"
    },
    {
      "inputs": [
        {
          "internalType": "address",
          "name": "economy_",
          "type": "address"
        }
      ],
      "name": "setEconomy",
      "outputs": [],
      "stateMutability": "nonpayable",
      "type": "function"
    },
    {
      "inputs": [
        {
          "internalType": "bytes4",
          "name": "interfaceId",
          "type": "bytes4"
        }
      ],
      "name": "supportsInterface",
      "outputs": [
        {
          "internalType": "bool",
          "name": "",
          "type": "bool"
        }
      ],
      "stateMutability": "view",
      "type": "function"
    },
    {
      "inputs": [
        {
          "internalType": "uint256",
          "name": "",
          "type": "uint256"
        }
      ],
      "name": "teams",
      "outputs": [
        {
          "internalType": "uint256",
          "name": "n0",
          "type": "uint256"
        },
        {
          "internalType": "uint256",
          "name": "lMin",
          "type": "uint256"
        },
        {
          "internalType": "uint256",
          "name": "lMax",
          "type": "uint256"
        },
        {
          "internalType": "string",
          "name": "flagURI",
          "type": "string"
        },
        {
          "internalType": "uint256",
          "name": "currentR",
          "type": "uint256"
        }
      ],
      "stateMutability": "view",
      "type": "function"
    }
  ],
  "bytecode": "0x608060405234801561000f575f5ffd5b506040516112d13803806112d183398101604081905261002e916100e8565b6100385f8261003f565b5050610115565b5f828152602081815260408083206001600160a01b038516845290915281205460ff166100df575f838152602081815260408083206001600160a01b03861684529091529020805460ff191660011790556100973390565b6001600160a01b0316826001600160a01b0316847f2f8788117e7eff1d82e926ec794901d17c78024a50270940304540a733656f0d60405160405180910390a45060016100e2565b505f5b92915050565b5f602082840312156100f8575f5ffd5b81516001600160a01b038116811461010e575f5ffd5b9392505050565b6111af806101225f395ff3fe608060405234801561000f575f5ffd5b5060043610610106575f3560e01c806375b238fc1161009e578063ad8509b01161006e578063ad8509b01461022c578063bb1895c81461023f578063c46a5c18146102c4578063d547741f146102e3578063d5d6ed14146102f6575f5ffd5b806375b238fc146101e75780638820f6bd146101ee57806391d1485414610219578063a217fddf146101e7575f5ffd5b80632f2ff15d116100d95780632f2ff15d1461018a57806336568abe1461019d5780633ed2b77a146101b057806367dfd4c9146101d4575f5ffd5b806301ffc9a71461010a578063049878f31461013257806319e7206e14610147578063248a9ca31461015a575b5f5ffd5b61011d610118366004610dbf565b610309565b60405190151581526020015b60405180910390f35b610145610140366004610ded565b61033f565b005b610145610155366004610e04565b610564565b61017c610168366004610ded565b5f9081526020819052604090206001015490565b604051908152602001610129565b610145610198366004610eb0565b6106dc565b6101456101ab366004610eb0565b610706565b6101c36101be366004610ded565b610739565b604051610129959493929190610eda565b6101456101e2366004610ded565b6107ee565b61017c5f81565b600454610201906001600160a01b031681565b6040516001600160a01b039091168152602001610129565b61011d610227366004610eb0565b6109cd565b61014561023a366004610f2b565b6109f5565b61029161024d366004610eb0565b600260209081525f928352604080842090915290825290205460ff8116906001600160401b036101008204811691600160481b8104821691600160881b9091041684565b6040805160ff90951685526001600160401b03938416602086015291831691840191909152166060820152608001610129565b61017c6102d2366004610f2b565b60036020525f908152604090205481565b6101456102f1366004610eb0565b610a49565b610145610304366004610f44565b610a6d565b5f6001600160e01b03198216637965db0b60e01b148061033957506301ffc9a760e01b6001600160e01b03198316145b92915050565b335f90815260036020526040902054156103925760405162461bcd60e51b815260206004820152600f60248201526e616c726561647920696e207465616d60881b60448201526064015b60405180910390fd5b5f81815260016020526040812080549091036103e15760405162461bcd60e51b815260206004820152600e60248201526d1d19585b481b9bdd08195e1a5cdd60921b6044820152606401610389565b5f8281526002602090815260408083203384529091529020805460ff16158061042a5750805460ff16600214801561042a57508054600160881b90046001600160401b03164210155b6104615760405162461bcd60e51b815260206004820152600860248201526731b7b7b63237bbb760c11b6044820152606401610389565b8054600168ffffffffffffffffff19909116610100426001600160401b03160217811770ffffffffffffffff00000000000000000019168255335f9081526003602052604081208590556004840180549091906104bf908490610fa0565b9091555050604051339084907f78da64a590c3052953ad9e0a5546bbf12bb68ae7634e3fb2a774e22a8c6557c1905f90a36004546001600160a01b03161561055f57600480546040516326102adb60e11b81529182018590523360248301526001600160a01b031690634c2055b6906044015f604051808303815f87803b158015610548575f5ffd5b505af115801561055a573d5f5f3e3d5ffd5b505050505b505050565b5f61056e81610c7d565b5f87815260016020526040902054156105b75760405162461bcd60e51b815260206004820152600b60248201526a7465616d2065786973747360a81b6044820152606401610389565b838511156105f35760405162461bcd60e51b81526020600482015260096024820152680d89ad2dc7cd89ac2f60bb1b6044820152606401610389565b6040518060a0016040528087815260200186815260200185815260200184848080601f0160208091040260200160405190810160405280939291908181526020018383808284375f92018290525093855250505060209182018190528981526001808352604091829020845181559284015190830155820151600282015560608201516003820190610685908261104a565b5060808201518160040155905050867f30b21317dbcfc550a40a6f087a3611c94d69e3ae32c648b25a3b8d6a98a1660f87878787876040516106cb959493929190611104565b60405180910390a250505050505050565b5f828152602081905260409020600101546106f681610c7d565b6107008383610c8a565b50505050565b6001600160a01b038116331461072f5760405163334bd91960e11b815260040160405180910390fd5b61055f8282610d19565b600160208190525f918252604090912080549181015460028201546003830180549293919261076790610fc7565b80601f016020809104026020016040519081016040528092919081815260200182805461079390610fc7565b80156107de5780601f106107b5576101008083540402835291602001916107de565b820191905f5260205f20905b8154815290600101906020018083116107c157829003601f168201915b5050505050908060040154905085565b335f908152600360205260408120549081900361083b5760405162461bcd60e51b815260206004820152600b60248201526a6e6f7420696e207465616d60a81b6044820152606401610389565b5f818152600160208181526040808420600283528185203386529092529092208054909160ff9091161461089e5760405162461bcd60e51b815260206004820152600a6024820152696e6f742061637469766560b01b6044820152606401610389565b80546001600160401b034216600160481b810270ffffffffffffffff0000000000000000ff199092169190911760021782556108db908590610fa0565b81546001600160401b0391909116600160881b0267ffffffffffffffff60881b19909116178155335f90815260036020526040812081905560048301805460019290610928908490611147565b9091555050604051339084907fa8dcd974806422d974a6135dd981896f1694065789986f7ba7947fbb4759e899905f90a36004546001600160a01b031615610700576004805460405163679f8c1360e11b81529182018590523360248301526001600160a01b03169063cf3f1826906044015f604051808303815f87803b1580156109b1575f5ffd5b505af11580156109c3573d5f5f3e3d5ffd5b5050505050505050565b5f918252602082815260408084206001600160a01b0393909316845291905290205460ff1690565b5f6109ff81610c7d565b600480546001600160a01b0319166001600160a01b0384169081179091556040517f6abd000123251e1be06ec487812dacf418e6bd6b89201ed432a78bf73e704a3d905f90a25050565b5f82815260208190526040902060010154610a6381610c7d565b6107008383610d19565b5f610a7781610c7d565b6001600160a01b0383165f908152600360205260409020548414610aca5760405162461bcd60e51b815260206004820152600a6024820152693737ba1036b2b6b132b960b11b6044820152606401610389565b5f848152600160208181526040808420600283528185206001600160a01b03891686529092529092208054909160ff90911614610b365760405162461bcd60e51b815260206004820152600a6024820152696e6f742061637469766560b01b6044820152606401610389565b80546001600160401b0342908116600160481b0270ffffffffffffffff0000000000000000ff19909216919091176002178255610b7490859061115a565b81546001600160401b0391909116600160881b0267ffffffffffffffff60881b199091161781556001600160a01b0385165f90815260036020526040812081905560048301805460019290610bca908490611147565b90915550506040516001600160a01b0386169087907f4b6b93b53aeb80949f4b488b4668c9287744c15799030e23389fa9552aee1b32905f90a36004546001600160a01b031615610c75576004805460405163679f8c1360e11b81529182018890526001600160a01b038781166024840152169063cf3f1826906044015f604051808303815f87803b158015610c5e575f5ffd5b505af1158015610c70573d5f5f3e3d5ffd5b505050505b505050505050565b610c878133610d82565b50565b5f610c9583836109cd565b610d12575f838152602081815260408083206001600160a01b03861684529091529020805460ff19166001179055610cca3390565b6001600160a01b0316826001600160a01b0316847f2f8788117e7eff1d82e926ec794901d17c78024a50270940304540a733656f0d60405160405180910390a4506001610339565b505f610339565b5f610d2483836109cd565b15610d12575f838152602081815260408083206001600160a01b0386168085529252808320805460ff1916905551339286917ff6391f5c32d9c69d2a47ea670b442974b53935d1edc7fd64eb21e047a839171b9190a4506001610339565b610d8c82826109cd565b610dbb5760405163e2517d3f60e01b81526001600160a01b038216600482015260248101839052604401610389565b5050565b5f60208284031215610dcf575f5ffd5b81356001600160e01b031981168114610de6575f5ffd5b9392505050565b5f60208284031215610dfd575f5ffd5b5035919050565b5f5f5f5f5f5f60a08789031215610e19575f5ffd5b8635955060208701359450604087013593506060870135925060808701356001600160401b03811115610e4a575f5ffd5b8701601f81018913610e5a575f5ffd5b80356001600160401b03811115610e6f575f5ffd5b896020828401011115610e80575f5ffd5b60208201935080925050509295509295509295565b80356001600160a01b0381168114610eab575f5ffd5b919050565b5f5f60408385031215610ec1575f5ffd5b82359150610ed160208401610e95565b90509250929050565b85815284602082015283604082015260a060608201525f83518060a0840152806020860160c085015e5f60c0828501015260c0601f19601f8301168401019150508260808301529695505050505050565b5f60208284031215610f3b575f5ffd5b610de682610e95565b5f5f5f60608486031215610f56575f5ffd5b83359250610f6660208501610e95565b915060408401356001600160401b0381168114610f81575f5ffd5b809150509250925092565b634e487b7160e01b5f52601160045260245ffd5b8082018082111561033957610339610f8c565b634e487b7160e01b5f52604160045260245ffd5b600181811c90821680610fdb57607f821691505b602082108103610ff957634e487b7160e01b5f52602260045260245ffd5b50919050565b601f82111561055f57805f5260205f20601f840160051c810160208510156110245750805b601f840160051c820191505b81811015611043575f8155600101611030565b5050505050565b81516001600160401b0381111561106357611063610fb3565b611077816110718454610fc7565b84610fff565b6020601f8211600181146110a9575f83156110925750848201515b5f19600385901b1c1916600184901b178455611043565b5f84815260208120601f198516915b828110156110d857878501518255602094850194600190920191016110b8565b50848210156110f557868401515f19600387901b60f8161c191681555b50505050600190811b01905550565b85815284602082015283604082015260806060820152816080820152818360a08301375f81830160a090810191909152601f909201601f19160101949350505050565b8181038181111561033957610339610f8c565b6001600160401b03818116838216019081111561033957610339610f8c56fea2646970667358221220b7f54e797cd471e9d4ab8f6186afa18d3bbb250b7d5c73a3fadf2e2ac2192e8e64736f6c634300081c0033",
  "linkReferences": {},
  "deployedLinkReferences": {},
  "immutableReferences": {},
  "inputSourceName": "project/contracts/TeamManager.sol",
  "buildInfoId": "solc-0_8_28-daf030057fb8f6bd9f18ee61d2418cfd097f5033"
}