{
  "_format": "hh3-artifact-1",
  "contractName": "TeamManager",
  "sourceName": "contracts/TeamManager.sol",
  "abi": [
    {
      "inputs": [
        {
          "internalType": "address",
          "name": "admin",
          "type": "address"
        },
        {
          "internalType": "uint256",
          "name": "_maxTeamCapacity",
          "type": "uint256"
        }
      ],
      "stateMutability": "nonpayable",
      "type": "constructor"
    },
    {
      "inputs": [],
      "name": "AccessControlBadConfirmation",
      "type": "error"
    },
    {
      "inputs": [
        {
          "internalType": "address",
          "name": "account",
          "type": "address"
        },
        {
          "internalType": "bytes32",
          "name": "neededRole",
          "type": "bytes32"
        }
      ],
      "name": "AccessControlUnauthorizedAccount",
      "type": "error"
    },
    {
      "anonymous": false,
      "inputs": [
        {
          "indexed": true,
          "internalType": "address",
          "name": "economy",
          "type": "address"
        }
      ],
      "name": "EconomySet",
      "type": "event"
    },
    {
      "anonymous": false,
      "inputs": [
        {
          "indexed": true,
          "internalType": "uint256",
          "name": "teamId",
          "type": "uint256"
        },
        {
          "indexed": true,
          "internalType": "address",
          "name": "account",
          "type": "address"
        }
      ],
      "name": "MemberEliminated",
      "type": "event"
    },
    {
      "anonymous": false,
      "inputs": [
        {
          "indexed": true,
          "internalType": "uint256",
          "name": "teamId",
          "type": "uint256"
        },
        {
          "indexed": true,
          "internalType": "address",
          "name": "account",
          "type": "address"
        }
      ],
      "name": "MemberJoined",
      "type": "event"
    },
    {
      "anonymous": false,
      "inputs": [
        {
          "indexed": true,
          "internalType": "uint256",
          "name": "teamId",
          "type": "uint256"
        },
        {
          "indexed": true,
          "internalType": "address",
          "name": "account",
          "type": "address"
        }
      ],
      "name": "MemberLeft",
      "type": "event"
    },
    {
      "anonymous": false,
      "inputs": [
        {
          "indexed": true,
          "internalType": "bytes32",
          "name": "role",
          "type": "bytes32"
        },
        {
          "indexed": true,
          "internalType": "bytes32",
          "name": "previousAdminRole",
          "type": "bytes32"
        },
        {
          "indexed": true,
          "internalType": "bytes32",
          "name": "newAdminRole",
          "type": "bytes32"
        }
      ],
      "name": "RoleAdminChanged",
      "type": "event"
    },
    {
      "anonymous": false,
      "inputs": [
        {
          "indexed": true,
          "internalType": "bytes32",
          "name": "role",
          "type": "bytes32"
        },
        {
          "indexed": true,
          "internalType": "address",
          "name": "account",
          "type": "address"
        },
        {
          "indexed": true,
          "internalType": "address",
          "name": "sender",
          "type": "address"
        }
      ],
      "name": "RoleGranted",
      "type": "event"
    },
    {
      "anonymous": false,
      "inputs": [
        {
          "indexed": true,
          "internalType": "bytes32",
          "name": "role",
          "type": "bytes32"
        },
        {
          "indexed": true,
          "internalType": "address",
          "name": "account",
          "type": "address"
        },
        {
          "indexed": true,
          "internalType": "address",
          "name": "sender",
          "type": "address"
        }
      ],
      "name": "RoleRevoked",
      "type": "event"
    },
    {
      "anonymous": false,
      "inputs": [
        {
          "indexed": false,
          "internalType": "uint256",
          "name": "maxTeamCapacity",
          "type": "uint256"
        }
      ],
      "name": "TeamConfigUpdated",
      "type": "event"
    },
    {
      "anonymous": false,
      "inputs": [
        {
          "indexed": true,
          "internalType": "uint256",
          "name": "teamId",
          "type": "uint256"
        },
        {
          "indexed": false,
          "internalType": "string",
          "name": "name",
          "type": "string"
        }
      ],
      "name": "TeamCreated",
      "type": "event"
    },
    {
      "inputs": [],
      "name": "ADMIN_ROLE",
      "outputs": [
        {
          "internalType": "bytes32",
          "name": "",
          "type": "bytes32"
        }
      ],
      "stateMutability": "view",
      "type": "function"
    },
    {
      "inputs": [],
      "name": "DEFAULT_ADMIN_ROLE",
      "outputs": [
        {
          "internalType": "bytes32",
          "name": "",
          "type": "bytes32"
        }
      ],
      "stateMutability": "view",
      "type": "function"
    },
    {
      "inputs": [
        {
          "internalType": "address",
          "name": "",
          "type": "address"
        }
      ],
      "name": "accountTeam",
      "outputs": [
        {
          "internalType": "uint256",
          "name": "",
          "type": "uint256"
        }
      ],
      "stateMutability": "view",
      "type": "function"
    },
    {
      "inputs": [
        {
          "internalType": "string",
          "name": "name",
          "type": "string"
        }
      ],
      "name": "createTeam",
      "outputs": [
        {
          "internalType": "uint256",
          "name": "teamId",
          "type": "uint256"
        }
      ],
      "stateMutability": "nonpayable",
      "type": "function"
    },
    {
      "inputs": [],
      "name": "economy",
      "outputs": [
        {
          "internalType": "contract ITeamEconomyHooks",
          "name": "",
          "type": "address"
        }
      ],
      "stateMutability": "view",
      "type": "function"
    },
    {
      "inputs": [
        {
          "internalType": "uint256",
          "name": "teamId",
          "type": "uint256"
        },
        {
          "internalType": "address",
          "name": "account",
          "type": "address"
        },
        {
          "internalType": "uint64",
          "name": "cooldownSeconds",
          "type": "uint64"
        }
      ],
      "name": "eliminate",
      "outputs": [],
      "stateMutability": "nonpayable",
      "type": "function"
    },
    {
      "inputs": [
        {
          "internalType": "bytes32",
          "name": "role",
          "type": "bytes32"
        }
      ],
      "name": "getRoleAdmin",
      "outputs": [
        {
          "internalType": "bytes32",
          "name": "",
          "type": "bytes32"
        }
      ],
      "stateMutability": "view",
      "type": "function"
    },
    {
      "inputs": [
        {
          "internalType": "uint256",
          "name": "",
          "type": "uint256"
        }
      ],
      "name": "getTeamSize",
      "outputs": [
        {
          "internalType": "uint256",
          "name": "",
          "type": "uint256"
        }
      ],
      "stateMutability": "view",
      "type": "function"
    },
    {
      "inputs": [
        {
          "internalType": "bytes32",
          "name": "role",
          "type": "bytes32"
        },
        {
          "internalType": "address",
          "name": "account",
          "type": "address"
        }
      ],
      "name": "grantRole",
      "outputs": [],
      "stateMutability": "nonpayable",
      "type": "function"
    },
    {
      "inputs": [
        {
          "internalType": "bytes32",
          "name": "role",
          "type": "bytes32"
        },
        {
          "internalType": "address",
          "name": "account",
          "type": "address"
        }
      ],
      "name": "hasRole",
      "outputs": [
        {
          "internalType": "bool",
          "name": "",
          "type": "bool"
        }
      ],
      "stateMutability": "view",
      "type": "function"
    },
    {
      "inputs": [
        {
          "internalType": "uint256",
          "name": "teamId",
          "type": "uint256"
        }
      ],
      "name": "join",
      "outputs": [],
      "stateMutability": "nonpayable",
      "type": "function"
    },
    {
      "inputs": [
        {
          "internalType": "uint256",
          "name": "cooldownSeconds",
          "type": "uint256"
        }
      ],
      "name": "leave",
      "outputs": [],
      "stateMutability": "nonpayable",
      "type": "function"
    },
    {
      "inputs": [],
      "name": "maxTeamCapacity",
      "outputs": [
        {
          "internalType": "uint256",
          "name": "",
          "type": "uint256"
        }
      ],
      "stateMutability": "view",
      "type": "function"
    },
    {
      "inputs": [
        {
          "internalType": "uint256",
          "name": "",
          "type": "uint256"
        },
        {
          "internalType": "address",
          "name": "",
          "type": "address"
        }
      ],
      "name": "members",
      "outputs": [
        {
          "internalType": "uint8",
          "name": "status",
          "type": "uint8"
        },
        {
          "internalType": "uint64",
          "name": "joinedAt",
          "type": "uint64"
        },
        {
          "internalType": "uint64",
          "name": "eliminatedAt",
          "type": "uint64"
        },
        {
          "internalType": "uint64",
          "name": "cooldownEndsAt",
          "type": "uint64"
        }
      ],
      "stateMutability": "view",
      "type": "function"
    },
    {
      "inputs": [],
      "name": "nextTeamId",
      "outputs": [
        {
          "internalType": "uint256",
          "name": "",
          "type": "uint256"
        }
      ],
      "stateMutability": "view",
      "type": "function"
    },
    {
      "inputs": [
        {
          "internalType": "bytes32",
          "name": "role",
          "type": "bytes32"
        },
        {
          "internalType": "address",
          "name": "callerConfirmation",
          "type": "address"
        }
      ],
      "name": "renounceRole",
      "outputs": [],
      "stateMutability": "nonpayable",
      "type": "function"
    },
    {
      "inputs": [
        {
          "internalType": "bytes32",
          "name": "role",
          "type": "bytes32"
        },
        {
          "internalType": "address",
          "name": "account",
          "type": "address"
        }
      ],
      "name": "revokeRole",
      "outputs": [],
      "stateMutability": "nonpayable",
      "type": "function"
    },
    {
      "inputs": [
        {
          "internalType": "address",
          "name": "economy_",
          "type": "address"
        }
      ],
      "name": "setEconomy",
      "outputs": [],
      "stateMutability": "nonpayable",
      "type": "function"
    },
    {
      "inputs": [
        {
          "internalType": "uint256",
          "name": "_maxTeamCapacity",
          "type": "uint256"
        }
      ],
      "name": "setTeamConfig",
      "outputs": [],
      "stateMutability": "nonpayable",
      "type": "function"
    },
    {
      "inputs": [
        {
          "internalType": "bytes4",
          "name": "interfaceId",
          "type": "bytes4"
        }
      ],
      "name": "supportsInterface",
      "outputs": [
        {
          "internalType": "bool",
          "name": "",
          "type": "bool"
        }
      ],
      "stateMutability": "view",
      "type": "function"
    },
    {
      "inputs": [
        {
          "internalType": "uint256",
          "name": "",
          "type": "uint256"
        }
      ],
      "name": "teams",
      "outputs": [
        {
          "internalType": "string",
          "name": "name",
          "type": "string"
        },
        {
          "internalType": "uint256",
          "name": "activeMemberCount",
          "type": "uint256"
        }
      ],
      "stateMutability": "view",
      "type": "function"
    }
  ],
  "bytecode": "0x60806040526001600555348015610014575f5ffd5b5060405161143638038061143683398101604081905261003391610179565b5f81116100865760405162461bcd60e51b815260206004820152601560248201527f696e76616c6964207465616d2063617061636974790000000000000000000000604482015260640160405180910390fd5b6100905f836100d0565b5060018190556040518181527f0c992f43434e39fad639a7489a191248064d5b4a53bea900ac01928dc9c82de09060200160405180910390a150506101b0565b5f828152602081815260408083206001600160a01b038516845290915281205460ff16610170575f838152602081815260408083206001600160a01b03861684529091529020805460ff191660011790556101283390565b6001600160a01b0316826001600160a01b0316847f2f8788117e7eff1d82e926ec794901d17c78024a50270940304540a733656f0d60405160405180910390a4506001610173565b505f5b92915050565b5f5f6040838503121561018a575f5ffd5b82516001600160a01b03811681146101a0575f5ffd5b6020939093015192949293505050565b611279806101bd5f395ff3fe608060405234801561000f575f5ffd5b5060043610610132575f3560e01c806375b238fc116100b4578063a9873e3711610079578063a9873e3714610286578063ad8509b01461028f578063bb1895c8146102a2578063c46a5c1814610327578063d547741f14610346578063d5d6ed1414610359575f5ffd5b806375b238fc1461022e5780638820f6bd1461023557806391d1485414610260578063972fa53f14610273578063a217fddf1461022e575f5ffd5b806336568abe116100fa57806336568abe146101cb5780633ed2b77a146101de57806357d7251d146101ff57806367dfd4c91461021257806368599d0c14610225575f5ffd5b806301ffc9a714610136578063033eeffb1461015e578063049878f314610181578063248a9ca3146101965780632f2ff15d146101b8575b5f5ffd5b610149610144366004610ec0565b61036c565b60405190151581526020015b60405180910390f35b61017361016c366004610eee565b5060015490565b604051908152602001610155565b61019461018f366004610eee565b6103a2565b005b6101736101a4366004610eee565b5f9081526020819052604090206001015490565b6101946101c6366004610f20565b610617565b6101946101d9366004610f20565b610641565b6101f16101ec366004610eee565b610674565b604051610155929190610f4a565b61019461020d366004610eee565b610715565b610194610220366004610eee565b6107a2565b61017360055481565b6101735f81565b600654610248906001600160a01b031681565b6040516001600160a01b039091168152602001610155565b61014961026e366004610f20565b610982565b610173610281366004610f86565b6109aa565b61017360015481565b61019461029d366004610ff2565b610af5565b6102f46102b0366004610f20565b600360209081525f928352604080842090915290825290205460ff8116906001600160401b036101008204811691600160481b8104821691600160881b9091041684565b6040805160ff90951685526001600160401b03938416602086015291831691840191909152166060820152608001610155565b610173610335366004610ff2565b60046020525f908152604090205481565b610194610354366004610f20565b610b49565b61019461036736600461100b565b610b6d565b5f6001600160e01b03198216637965db0b60e01b148061039c57506301ffc9a760e01b6001600160e01b03198316145b92915050565b335f90815260046020526040902054156103f55760405162461bcd60e51b815260206004820152600f60248201526e616c726561647920696e207465616d60881b60448201526064015b60405180910390fd5b5f8181526002602052604081208054909190829061041290611053565b9050116104525760405162461bcd60e51b815260206004820152600e60248201526d1d19585b481b9bdd08195e1a5cdd60921b60448201526064016103ec565b6001548160010154106104935760405162461bcd60e51b81526020600482015260096024820152681d19585b48199d5b1b60ba1b60448201526064016103ec565b5f8281526003602090815260408083203384529091529020805460ff1615806104dc5750805460ff1660021480156104dc57508054600160881b90046001600160401b03164210155b6105135760405162461bcd60e51b815260206004820152600860248201526731b7b7b63237bbb760c11b60448201526064016103ec565b8054600168ffffffffffffffffff19909116610100426001600160401b03160217811770ffffffffffffffff00000000000000000019168255335f908152600460205260408120859055838201805490919061057090849061109f565b9091555050604051339084907f78da64a590c3052953ad9e0a5546bbf12bb68ae7634e3fb2a774e22a8c6557c1905f90a36006546001600160a01b031615610612576006546040516326102adb60e11b8152600481018590523360248201526001600160a01b0390911690634c2055b6906044015f604051808303815f87803b1580156105fb575f5ffd5b505af115801561060d573d5f5f3e3d5ffd5b505050505b505050565b5f8281526020819052604090206001015461063181610d7e565b61063b8383610d8b565b50505050565b6001600160a01b038116331461066a5760405163334bd91960e11b815260040160405180910390fd5b6106128282610e1a565b60026020525f908152604090208054819061068e90611053565b80601f01602080910402602001604051908101604052809291908181526020018280546106ba90611053565b80156107055780601f106106dc57610100808354040283529160200191610705565b820191905f5260205f20905b8154815290600101906020018083116106e857829003601f168201915b5050505050908060010154905082565b5f61071f81610d7e565b5f82116107665760405162461bcd60e51b8152602060048201526015602482015274696e76616c6964207465616d20636170616369747960581b60448201526064016103ec565b60018290556040518281527f0c992f43434e39fad639a7489a191248064d5b4a53bea900ac01928dc9c82de09060200160405180910390a15050565b335f90815260046020526040812054908190036107ef5760405162461bcd60e51b815260206004820152600b60248201526a6e6f7420696e207465616d60a81b60448201526064016103ec565b5f81815260026020908152604080832060038352818420338552909252909120805460ff166001146108505760405162461bcd60e51b815260206004820152600a6024820152696e6f742061637469766560b01b60448201526064016103ec565b80546001600160401b034216600160481b810270ffffffffffffffff0000000000000000ff1990921691909117600217825561088d90859061109f565b81546001600160401b0391909116600160881b0267ffffffffffffffff60881b19909116178155335f90815260046020526040812081905560018381018054919290916108db9084906110b2565b9091555050604051339084907fa8dcd974806422d974a6135dd981896f1694065789986f7ba7947fbb4759e899905f90a36006546001600160a01b03161561063b5760065460405163679f8c1360e11b8152600481018590523360248201526001600160a01b039091169063cf3f1826906044015f604051808303815f87803b158015610966575f5ffd5b505af1158015610978573d5f5f3e3d5ffd5b5050505050505050565b5f918252602082815260408084206001600160a01b0393909316845291905290205460ff1690565b335f90815260046020526040812054156109f85760405162461bcd60e51b815260206004820152600f60248201526e616c726561647920696e207465616d60881b60448201526064016103ec565b81610a355760405162461bcd60e51b815260206004820152600d60248201526c1b985b59481c995c5d5a5c9959609a1b60448201526064016103ec565b60058054905f610a44836110c5565b909155506040805160606020601f87018190040282018101835291810185815292935091829186908690819085018382808284375f920182905250938552505050602091820181905283815260029091526040902081518190610aa7908261113c565b5060208201518160010155905050807fc3b029df08ed9ea719fd1c58c4d3d726a3fd9440ad7c60dfced9f96646f0d7f68484604051610ae79291906111f6565b60405180910390a292915050565b5f610aff81610d7e565b600680546001600160a01b0319166001600160a01b0384169081179091556040517f6abd000123251e1be06ec487812dacf418e6bd6b89201ed432a78bf73e704a3d905f90a25050565b5f82815260208190526040902060010154610b6381610d7e565b61063b8383610e1a565b5f610b7781610d7e565b6001600160a01b0383165f908152600460205260409020548414610bca5760405162461bcd60e51b815260206004820152600a6024820152693737ba1036b2b6b132b960b11b60448201526064016103ec565b5f848152600260209081526040808320600383528184206001600160a01b0388168552909252909120805460ff16600114610c345760405162461bcd60e51b815260206004820152600a6024820152696e6f742061637469766560b01b60448201526064016103ec565b80546001600160401b0342908116600160481b0270ffffffffffffffff0000000000000000ff19909216919091176002178255610c72908590611224565b81546001600160401b0391909116600160881b0267ffffffffffffffff60881b199091161781556001600160a01b0385165f9081526004602052604081208190556001838101805491929091610cc99084906110b2565b90915550506040516001600160a01b0386169087907f4b6b93b53aeb80949f4b488b4668c9287744c15799030e23389fa9552aee1b32905f90a36006546001600160a01b031615610d765760065460405163679f8c1360e11b8152600481018890526001600160a01b0387811660248301529091169063cf3f1826906044015f604051808303815f87803b158015610d5f575f5ffd5b505af1158015610d71573d5f5f3e3d5ffd5b505050505b505050505050565b610d888133610e83565b50565b5f610d968383610982565b610e13575f838152602081815260408083206001600160a01b03861684529091529020805460ff19166001179055610dcb3390565b6001600160a01b0316826001600160a01b0316847f2f8788117e7eff1d82e926ec794901d17c78024a50270940304540a733656f0d60405160405180910390a450600161039c565b505f61039c565b5f610e258383610982565b15610e13575f838152602081815260408083206001600160a01b0386168085529252808320805460ff1916905551339286917ff6391f5c32d9c69d2a47ea670b442974b53935d1edc7fd64eb21e047a839171b9190a450600161039c565b610e8d8282610982565b610ebc5760405163e2517d3f60e01b81526001600160a01b0382166004820152602481018390526044016103ec565b5050565b5f60208284031215610ed0575f5ffd5b81356001600160e01b031981168114610ee7575f5ffd5b9392505050565b5f60208284031215610efe575f5ffd5b5035919050565b80356001600160a01b0381168114610f1b575f5ffd5b919050565b5f5f60408385031215610f31575f5ffd5b82359150610f4160208401610f05565b90509250929050565b604081525f83518060408401528060208601606085015e5f606082850101526060601f19601f8301168401019150508260208301529392505050565b5f5f60208385031215610f97575f5ffd5b82356001600160401b03811115610fac575f5ffd5b8301601f81018513610fbc575f5ffd5b80356001600160401b03811115610fd1575f5ffd5b856020828401011115610fe2575f5ffd5b6020919091019590945092505050565b5f60208284031215611002575f5ffd5b610ee782610f05565b5f5f5f6060848603121561101d575f5ffd5b8335925061102d60208501610f05565b915060408401356001600160401b0381168114611048575f5ffd5b809150509250925092565b600181811c9082168061106757607f821691505b60208210810361108557634e487b7160e01b5f52602260045260245ffd5b50919050565b634e487b7160e01b5f52601160045260245ffd5b8082018082111561039c5761039c61108b565b8181038181111561039c5761039c61108b565b5f600182016110d6576110d661108b565b5060010190565b634e487b7160e01b5f52604160045260245ffd5b601f82111561061257805f5260205f20601f840160051c810160208510156111165750805b601f840160051c820191505b81811015611135575f8155600101611122565b5050505050565b81516001600160401b03811115611155576111556110dd565b611169816111638454611053565b846110f1565b6020601f82116001811461119b575f83156111845750848201515b5f19600385901b1c1916600184901b178455611135565b5f84815260208120601f198516915b828110156111ca57878501518255602094850194600190920191016111aa565b50848210156111e757868401515f19600387901b60f8161c191681555b50505050600190811b01905550565b60208152816020820152818360408301375f818301604090810191909152601f909201601f19160101919050565b6001600160401b03818116838216019081111561039c5761039c61108b56fea26469706673582212205d16768e7ea23dfa105fa947db7bd059b5c4a2628474648e89e329b0e43f2f6064736f6c634300081c0033",
  "linkReferences": {},
  "deployedLinkReferences": {},
  "immutableReferences": {},
  "inputSourceName": "project/contracts/TeamManager.sol",
  "buildInfoId": "solc-0_8_28-a6b342b5d2e52f6a73876da74eaf3f8e581321ca"
}